:10E000000C9438700C944A700C944A700C944A70BA
:10E010000C944A700C944A700C944A700C944A7098
:10E020000C944A700C944A700C944A700C944A7088
:10E030000C944A700C944A700C944A700C944A7078
:10E040000C944A700C944A700C944A700C944A7068
:10E050000C944A700C944A700C944A700C944A7058
:10E060000C944A700C944A700C944A700C944A7048
:10E0700011241FBECFEFD0E1DEBFCDBF12E0A0E084
:10E08000B1E001C01D92A930B107E1F70E94B6715D
:10E090000C9432740C940070282F332727FD309590
:10E0A000207F3327359527953595279535952795E5
:10E0B000359527952A30A4F0295A8F708A3074F04C
:10E0C000895A9091C00095FFFCCF2093C600909193
:10E0D000C00095FFFCCF8093C6000895805DF1CF0E
:10E0E000205DEBCF9091C00095FFFCCF8093C600E0
:10E0F0000895CF92DF92EF92FF922898C12CD12CF5
:10E1000076018091C00087FD16C08FEFC81AD80A2B
:10E11000E80AF80A81E0C81689E0D8068DE3E80627
:10E12000F10478F3E0910001F091010109958091EB
:10E13000C00087FFEACF289A8091C600FF90EF9039
:10E14000DF90CF900895CF93DF930E947970C82F0E
:10E150009091C00095FFFCCFDC2FC093C6000E94B9
:10E160007970282F9091C00095FFFCCF822F2093CB
:10E17000C600C1367CF0DC2FD75521368CF4203315
:10E1800014F0822F805390E1D99F800D1124DF91EC
:10E19000CF910895C0338CF3DC2FD05321367CF31C
:10E1A000822F875590E1D99F800D1124DF91CF9167
:10E1B0000895882351F020E09091C00097FFFCCF94
:10E1C0009091C6002F5F2813F7CF0895CF93C82FE3
:10E1D0000E947970803249F0809102018F5F8093B4
:10E1E00002018530C1F0CF9108959091C00095FF54
:10E1F000FCCF84E18093C6009091C00095FFFCCFD6
:10E20000C093C6008091C00085FFFCCF80E1809361
:10E21000C600CF910895E0910001F0910101CF91E6
:10E2200009940E947970803241F0809102018F5FE1
:10E2300080930201853081F008958091C00085FFB0
:10E24000FCCF84E18093C6008091C00085FFFCCFA5
:10E2500080E18093C6000895E0910001F0910101F2
:10E260000994CF93DF9300D000D0CDB7DEB78111F2
:10E2700076C041E050E020E030E0289A19821A820E
:10E280001B821C8289819A81AB81BC8180389E432C
:10E29000A105B105A0F489819A81AB81BC81019669
:10E2A000A11DB11D89839A83AB83BC8389819A8127
:10E2B000AB81BC8180389E43A105B10560F32898ED
:10E2C00019821A821B821C8289819A81AB81BC814E
:10E2D00081159A4FA105B105A0F489819A81AB817E
:10E2E000BC810196A11DB11D89839A83AB83BC8338
:10E2F00089819A81AB81BC8181159A4FA105B105B5
:10E3000060F32F5F3F4F241735070CF4B6CF198207
:10E310001A821B821C8289819A81AB81BC81811502
:10E320009147A240B105A0F489819A81AB81BC815B
:10E330000196A11DB11D89839A83AB83BC8389811A
:10E340009A81AB81BC8181159147A240B10560F3F0
:10E350000F900F900F900F90DF91CF910895482F5D
:10E3600050E0141615060CF486CFD1CF000094B7F8
:10E3700014BE8091600088618093600010926000FC
:10E3800091FFECC180E18093C4001092C50088E148
:10E390008093C10086E08093C2005098589A209ADA
:10E3A00083E00E94317181E00E94317154E1C52EF9
:10E3B0006EE1362E76E9472EE9E05E2EF0E1DF2EA3
:10E3C000A1E46A2EB6E57B2EC2E58C2ED0E29D2E0E
:10E3D0000E9479708033B9F1813309F443C08034ED
:10E3E00009F49BC0813409F487C0823479F1853403
:10E3F00009F476C0803539F1813509F4A9C1823537
:10E4000011F1853509F4A4C0863509F494C0843629
:10E4100009F4A9C0843709F415C1853709F474C11A
:10E42000863709F476C0809102018F5F80930201E4
:10E43000853071F6E0910001F091010109950E948B
:10E440007970803349F60E941171C2CF94E18091B6
:10E45000C00087FFFCCF8091C6009150C1F70E9499
:10E460001171B6CF0E9479708032E9F68091C000B8
:10E4700085FFFCCFC092C6008091C00085FFFCCF15
:10E480006092C6008091C00085FFFCCF7092C600EC
:10E490008091C00085FFFCCF8092C6008091C000B3
:10E4A00085FFFCCF9092C6008091C00085FFFCCF15
:10E4B00089E48093C6008091C00085FFFCCF83E58E
:10E4C0008093C6008091C00085FFFCCF80E58093DB
:10E4D000C6008091C00085FFFCCFD092C60078CFE7
:10E4E00095E08091C00087FFFCCF8091C6009150DD
:10E4F000C1F70E9411716CCF0E947970803809F4C5
:10E50000F7C0813809F4FCC0823809F4F5C08839B5
:10E5100071F080E00E94E6705BCF0E9479708638CF
:10E5200008F491CF0E9479700E94117151CF83E05D
:10E530000E94E6704DCF94E08091C00087FFFCCF31
:10E540008091C6009150C1F780E00E94E67040CFF4
:10E550000E947970809303010E9479708093040176
:10E560000E94117135CF0E947970809306020E943B
:10E57000797080930502809108028E7F8093080253
:10E580000E947970853409F400C145E0E42E41E031
:10E59000F42EF701119281E0E538F807D9F7809160
:10E5A000050290910602892B99F005E011E0A12C5B
:10E5B000B12C0E947970D8018D938D01BFEFAB1AF9
:10E5C000BB0A8091050290910602A816B90688F34D
:10E5D0000E947970803209F026CF8091080280FF76
:10E5E000DAC0209105023091060221153105E9F0CB
:10E5F000E0910301F0910401CF0140E050E0F9996E
:10E60000FECF92BD81BDD7018D917D0180BDFA9A6B
:10E61000F99ACF010196FC019093040180930301C4
:10E620004F5F5F4F4217530750F38091C00085FF43
:10E63000FCCFC092C6008091C00085FFFCCFD09275
:10E64000C600C6CE0E947970809306020E9479703F
:10E65000809305020E947970853409F490C08091FE
:10E6600008028E7F8093080280910301909104013B
:10E67000880F991F90930401809303010E94797081
:10E68000803209F0A5CE8091C00085FFFCCFC092FA
:10E69000C600209105023091060221153105F9F0DE
:10E6A00080E090E040910802E0910301F0910401C4
:10E6B000542F51704270511157C0411107C06491DD
:10E6C0007091C00075FFFCCF6093C6003196F09347
:10E6D0000401E093030101968217930760F3809190
:10E6E000C00085FDFACE8091C00085FFF8CFF5CE41
:10E6F00082E00E94E6706CCE80E10E94E67068CEF7
:10E7000081E00E94E67064CE0E947970803209F048
:10E710008ACE8091C00085FFFCCFC092C600809158
:10E72000C00085FFFCCF3092C6008091C00085FFFD
:10E73000FCCF4092C6008091C00085FFFCCF509274
:10E74000C6008091C00085FFFCCFD092C60040CEAD
:10E750000E94117188E080936000FFCFE09100017A
:10E76000F091010109950ECEF999FECFF2BDE1BD00
:10E77000F89A60B57091C00075FFFCCFA5CF80916D
:10E78000080281608093080279CF8091080281603D
:10E7900080930802FACE8091030190910401880FC2
:10E7A000991F90930401809303018091050280FFDB
:10E7B00009C080910502909106020196909306028D
:10E7C00080930502F999FECF1127E0910301F091A2
:10E7D0000401C5E0D1E0809105029091060210305D
:10E7E00091F40091570001700130D9F303E00093D8
:10E7F0005700E8950091570001700130D9F301E10D
:10E8000000935700E8950990199000915700017006
:10E810000130D9F301E000935700E89513951038C3
:10E8200098F011270091570001700130D9F305E0ED
:10E8300000935700E8950091570001700130D9F31B
:10E8400001E100935700E8953296029709F0C7CF8F
:10E85000103011F00296E5CF11248091C00085FFA1
:08E86000E4CEE7CEF894FFCFEF
:040000030000E00019
:00000001FF
